:100000000C942A000C944B040C9474040C949D04DE
:100010000C940B0A0C94C0080C94A7070C94690963
:100020000C94BA090C945B080C9418090C940308FE
:100030000C9447000C9447000C9447000C94470024
:100040000C9447000C9447000C9447000C94470014
:100050000C94470011241FBECFE5D8E0DEBFCDBF12
:1000600010E0A0E6B0E0EEE6F8E102C005900D92E7
:10007000AE36B107D9F720E0AEE6B0E001C01D9280
:10008000AD3BB207E1F70E943E020C94350C0C9494
:10009000000081E08093700008954BEB50E060E039
:1000A00081E00E94D7034CEB50E062E081E00E94C7
:1000B000D7038091BC00813091F480916F00811151
:1000C0000EC080916E0081110AC085E00E94160268
:1000D00083E00E94EE0181E080936F00089580919B
:1000E000BB00813021F08091BA00813071F48091A1
:1000F0006F0081110AC080916E00811106C085E0F9
:100100000E94EE0181E080936E00089510927000CD
:1001100040E45BE46CE470E080E00E944107809181
:1001200070008130E1F708951092700040E251EACA
:1001300067E070E080E00E944107809170008130AC
:10014000E1F70895CF93DF93D82F81E08093BA0031
:10015000C1E015C081E00E94EE01D53619F484E0BB
:100160000E94EE010E94940081E00E941602D536A2
:1001700019F484E00E9416020E949400CF5FC630FA
:1001800048F31092BA00DF91CF91089580916E00EC
:100190008823E9F085E00E94160285E60E94A2000D
:1001A00085E00E94160283E00E94EE0182E00E9438
:1001B000EE010E94860082E00E94160285E60E94FF
:1001C000A20083E00E94160285E00E94EE010895DD
:1001D00080916F00882389F08130B9F40E948600F5
:1001E00082E00E94160285E60E94A20083E00E943F
:1001F000160285E00E94EE01089582E00E94160238
:1002000081E00E94A2000E94C60008956DE470E0A3
:1002100080E00E943D0469E470E080E00E948D0768
:100220000E9443020E94C6040E9424040E941307F5
:100230000E9490010E94590180E00E94EE010E94FC
:10024000860080E00E94160285E00E9416020E944D
:10025000C60080916E00882319F010926E00ECCFDA
:1002600081E00E94A2000E94C60080916E00882357
:1002700019F010926E00E0CF82E00E94EE01109221
:10028000700040E45BE46CE470E080E00E944107B1
:1002900080917000813021F080916F008130C1F732
:1002A0000E94E80080916F00882331F210926F0065
:1002B000C3CFCF93C0E030C08C2F90E0FC01EF584B
:1002C000FF4F2081213021F0D8F0223069F023C087
:1002D000FC01E05AFF4FDC01AF59BF4F41E06081A4
:1002E0008C910E944D0217C0FC01E05AFF4FDC01C7
:1002F000AF59BF4F40E060818C910E944D020BC00E
:10030000FC01E05AFF4FDC01AF59BF4F40E0608174
:100310008C910E944D02CF5FCC2371F2CF91089552
:100320001F93CF93DF9310E052C0C12FD0E0DE01C6
:10033000AE59BF4FFE01E859FF4F42E06C918081FA
:100340000E944D02FE01E858FF4F8081882319F07A
:100350008130F9F03BC0FE01EE58FF4F80818823C9
:1003600069F0813099F5FE01EE59FF4FC859DF4F12
:1003700041E0608188810E94440328C0FE01EE595B
:10038000FF4FC859DF4F40E0608188810E944403DD
:100390001DC0FE01EE58FF4F8081882369F0813037
:1003A000A9F4FE01EE59FF4FC859DF4F40E06081CC
:1003B00088810E9444030AC0FE01EE59FF4FC859CC
:1003C000DF4F41E0608188810E9444031F5F163047
:1003D00008F4ABCFDF91CF911F910895863010F5CF
:1003E00090E0FC01E858FF4F2081222319F02130D2
:1003F00069F01AC0FC01EE59FF4F6081FC01E85919
:10040000FF4F41E080810E9444030895FC01EE59B2
:10041000FF4F6081FC01E859FF4F40E080810E945E
:100420004403089581E0089580E00895863010F532
:1004300090E0FC01E858FF4F2081222319F0213081
:1004400069F01AC0FC01EE59FF4F6081FC01E859C8
:10045000FF4F40E080810E9444030895FC01EE5963
:10046000FF4F6081FC01E859FF4F41E080810E940D
:100470004403089581E0089580E008950E940601F4
:1004800080E090E008958FEF8ABB87BB14BA11BA61
:100490001BBA18BA15BA12BA0895853008F0E6C02A
:1004A000683008F0E5C0433008F0E4C041114FC0A7
:1004B0008230D1F018F4813031F0DEC0833029F180
:1004C0008430A1F1D9C02AB381E090E002C0880F46
:1004D000991F6A95E2F78095922F98239ABB9BB358
:1004E00089238BBB80E0089527B381E090E002C0B0
:1004F000880F991F6A95E2F78095922F982397BBF2
:1005000098B3892388BB80E0089524B381E090E00C
:1005100002C0880F991F6A95E2F78095922F982361
:1005200094BB95B3892385BB80E0089521B381E016
:1005300090E002C0880F991F6A95E2F78095922F8C
:10054000982391BB92B3892382BB80E00895413008
:1005500009F04EC090B79B7F90BF8230C9F018F46D
:10056000813031F08BC0833019F1843089F186C03D
:100570002AB381E090E002C0880F991F6A95E2F7E4
:10058000922F982B9ABB9BB3892B8BBB80E008954D
:1005900027B381E090E002C0880F991F6A95E2F7C7
:1005A000922F982B97BB98B3892B88BB80E0089536
:1005B00024B381E090E002C0880F991F6A95E2F7AA
:1005C000922F982B94BB95B3892B85BB80E008951F
:1005D00021B381E090E002C0880F991F6A95E2F78D
:1005E000922F982B91BB92B3892B82BB80E0089508
:1005F000423009F045C08230A9F018F4813031F062
:1006000041C08330D9F0843029F13CC02AB381E065
:1006100090E002C0880F991F6A95E2F7822B8ABB8F
:1006200080E0089527B381E090E002C0880F991F11
:100630006A95E2F7822B87BB80E0089524B381E0BE
:1006400090E002C0880F991F6A95E2F7822B84BB65
:1006500080E0089521B381E090E002C0880F991FE7
:100660006A95E2F7822B81BB80E0089581E00895CE
:1006700081E0089581E0089580E0089580E0089584
:1006800080E0089580E00895853008F084C06830E7
:1006900008F083C0423008F082C04130D9F5823082
:1006A000A9F018F4813031F07CC08330D9F0843067
:1006B00029F177C02BB381E090E002C0880F991F29
:1006C0006A95E2F7822B8BBB80E0089528B381E026
:1006D00090E002C0880F991F6A95E2F7822B88BBD1
:1006E00080E0089525B381E090E002C0880F991F53
:1006F0006A95E2F7822B85BB80E0089522B381E002
:1007000090E002C0880F991F6A95E2F7822B82BBA6
:1007100080E00895411147C08230B1F018F4813073
:1007200031F043C08330E9F0843041F13EC02BB357
:1007300081E090E002C0880F991F6A95E2F78095EA
:1007400082238BBB80E0089528B381E090E002C053
:10075000880F991F6A95E2F78095822388BB80E015
:10076000089525B381E090E002C0880F991F6A9533
:10077000E2F78095822385BB80E0089522B381E073
:1007800090E002C0880F991F6A95E2F78095822356
:1007900082BB80E0089581E0089581E0089581E0C2
:1007A000089580E0089580E0089580E00895853000
:1007B00008F042C0683008F041C04115510509F405
:1007C0003FC08230A9F018F4813031F03BC0833053
:1007D000D9F0843029F136C089B390E002C09595F4
:1007E00087956A95E2F78170FA01808380E0089529
:1007F00086B390E002C0959587956A95E2F781707F
:10080000FA01808380E0089583B390E002C095955B
:1008100087956A95E2F78170FA01808380E00895F8
:1008200080B390E002C0959587956A95E2F7817054
:10083000FA01808380E0089581E0089581E00895C1
:1008400081E0089580E008958BB780648BBF8BB7FB
:100850008F778BBF8BB78F7D8BBF85B7826085BF4E
:1008600085B7816085BF85B7877F85BF85B78B7F5B
:1008700085BF84B78F7B84BF0895833050F4E82F01
:10088000F0E0EE0FFF1FE258FF4F7183608380E0BE
:10089000089581E008951F920F920FB60F921124D0
:1008A0002F933F934F935F936F937F938F939F9378
:1008B000AF93BF93EF93FF93E0917E00F0917F00A1
:1008C000309709F00995FF91EF91BF91AF919F91FA
:1008D0008F917F916F915F914F913F912F910F90E9
:1008E0000FBE0F901F9018951F920F920FB60F9288
:1008F00011242F933F934F935F936F937F938F9325
:100900009F93AF93BF93EF93FF93E0918000F0919B
:100910008100309709F00995FF91EF91BF91AF9158
:100920009F918F917F916F915F914F913F912F9107
:100930000F900FBE0F901F9018951F920F920FB639
:100940000F9211242F933F934F935F936F937F9355
:100950008F939F93AF93BF93EF93FF93E0918200A8
:10096000F0918300309709F00995FF91EF91BF91C5
:10097000AF919F918F917F916F915F914F913F9137
:100980002F910F900FBE0F901F9018958FB7806812
:100990008FBF08958F929F92AF92BF92CF92DF92B6
:1009A000EF92FF926B017C0120E030E040E85FE3D2
:1009B0000E94C90A811116C081E090E0A0E0B0E079
:1009C00080939D0090939E00A0939F00B093A00001
:1009D0001092A9001092AA001092AB001092AC00E5
:1009E00012BE8EC020E030E040E85FE3C701B601F0
:1009F0000E94AF0B18160CF052C0C701B6010E943E
:100A0000CE0A4B015C010E94FD0A9B01AC01C701AB
:100A1000B6010E945C0A6B017C0120E030E0A90174
:100A20000E94C90A811112C080929D0090929E007E
:100A3000A0929F00B092A0001092A9001092AA006C
:100A40001092AB001092AC0012BE5AC020E030E011
:100A500040E853E4C701B6010E94B40B9B01AC010E
:100A600060E070E080E893E40E945C0A0E94CE0A95
:100A70002FEF821A920AA20AB20A80929D009092E7
:100A80009E00A0929F00B092A0006093A900709376
:100A9000AA008093AB009093AC0062BF31C020E00D
:100AA00030E040E85FE3C701B6010E94C90A88232D
:100AB0003CF520E030E040E853E4C701B6010E9475
:100AC000B40B9B01AC0160E070E080E893E40E940D
:100AD0005C0A0E94CE0AC12CD12C7601C394C0922C
:100AE0009D00D0929E00E0929F00F092A000609343
:100AF000A9007093AA008093AB009093AC0062BFF2
:100B0000FF90EF90DF90CF90BF90AF909F908F902D
:100B100008958F929F92AF92BF92CF92DF92EF9201
:100B2000FF926B017C0120E030E040E85FE30E942F
:100B3000C90A811117C081E090E0A0E0B0E0809385
:100B4000990090939A00A0939B00B0939C00109200
:100B5000A5001092A6001092A7001092A8001DBC3C
:100B60001CBC99C020E030E040E85FE3C701B6015B
:100B70000E94AF0B18160CF058C0C701B6010E94B6
:100B8000CE0A4B015C010E94FD0A9B01AC01C7012A
:100B9000B6010E945C0A6B017C0120E030E0A901F3
:100BA0000E94C90A811113C08092990090929A0004
:100BB000A0929B00B0929C001092A5001092A600FB
:100BC0001092A7001092A8001DBC1CBC64C020E0BD
:100BD00030E040E857E4C701B6010E94B40B9B0126
:100BE000AC0160E070E080E897E40E945C0A0E943B
:100BF000CE0A2FEF821A920AA20AB20A80929900B4
:100C000090929A00A0929B00B0929C006093A500E5
:100C10007093A6008093A7009093A800C72ED82EAB
:100C2000E92EFF24CDBC6CBD36C020E030E040E8AA
:100C30005FE3C701B6010E94C90A882364F520E07A
:100C400030E040E857E4C701B6010E94B40B9B01B5
:100C5000AC0160E070E080E897E40E945C0A0E94CA
:100C6000CE0AC12CD12C7601C394C0929900D092A7
:100C70009A00E0929B00F0929C006093A500709314
:100C8000A6008093A7009093A800C72ED82EE92E27
:100C9000FF24CDBC6CBDFF90EF90DF90CF90BF9054
:100CA000AF909F908F9008958F929F92AF92BF9236
:100CB000CF92DF92EF92FF926B017C0120E030E057
:100CC00040E85FE30E94C90A811116C081E090E00C
:100CD000A0E0B0E08093950090939600A0939700D9
:100CE000B09398001092A1001092A2001092A3005D
:100CF0001092A40014BC8EC020E030E040E85FE316
:100D0000C701B6010E94AF0B18160CF052C0C70104
:100D1000B6010E94CE0A4B015C010E94FD0A9B01B4
:100D2000AC01C701B6010E945C0A6B017C0120E0A6
:100D300030E0A9010E94C90A811112C08092950079
:100D400090929600A0929700B09298001092A10005
:100D50001092A2001092A3001092A40014BC5AC0DA
:100D600020E030E040E853E4C701B6010E94B40B34
:100D70009B01AC0160E070E080E893E40E945C0AB3
:100D80000E94CE0A2FEF821A920AA20AB20A809219
:100D9000950090929600A0929700B0929800609370
:100DA000A1007093A2008093A3009093A40064BD5F
:100DB00031C020E030E040E85FE3C701B6010E94A7
:100DC000C90A88233CF520E030E040E853E4C7013D
:100DD000B6010E94B40B9B01AC0160E070E080E8BA
:100DE00093E40E945C0A0E94CE0AC12CD12C7601A9
:100DF000C394C0929500D0929600E0929700F09232
:100E000098006093A1007093A2008093A300909338
:100E1000A40064BDFF90EF90DF90CF90BF90AF90A3
:100E20009F908F90089583B78F7B83BF83B7877F11
:100E300083BF89B7816089BF83B78F7E83BF83B744
:100E40008F7D83BF83B78E7F83BF83B78D7F83BF43
:100E500083B7846083BF83B78093B9008EB58E7FDC
:100E60008EBD8EB58D7F8EBD8EB58B7F8EBD85B5CB
:100E70008E7F85BD85B58D7F85BD85B58B7F85BD15
:100E80000895282F833008F044C0CB01BA012130E7
:100E9000C1F018F0223049F13EC01092B500109216
:100EA000B6001092B7001092B8000E94FD0A20E030
:100EB00030E040E059E30E94B40B0E94CA0480E095
:100EC00008951092B1001092B2001092B3001092E7
:100ED000B4000E94FD0A20E030E040E054E30E94AC
:100EE000B40B0E94890580E008951092AD00109225
:100EF000AE001092AF001092B0000E94FD0A20E0F8
:100F000030E040E85BE30E94B40B0E94540680E0AE
:100F1000089581E0089580E008958330B0F49091C1
:100F2000A90092BF2091A5003091A6003DBD2CBD27
:100F30009091A10094BDE82FF0E0EE0FFF1FE7575E
:100F4000FF4F7183608380E0089581E008951F92D0
:100F50000F920FB60F9211242F933F934F935F93ED
:100F60006F937F938F939F93AF93BF9380918800EC
:100F700081112FC081E08093880066B577B580919C
:100F8000860090918700681B790B709392006093A4
:100F900091002091840030918500281B390B3093FB
:100FA00094002093930086B597B590938700809323
:100FB000860044E6429FC001439F900D11240E9489
:100FC000210C7093900060938F008EB58F7B8EBD47
:100FD0000BC01092880086B597B5909385008093DA
:100FE00084008EB580648EBDBF91AF919F918F912B
:100FF0007F916F915F914F913F912F910F900FBE15
:101000000F901F9018951F920F920FB60F921124F8
:101010002F933F934F935F936F937F938F939F9300
:10102000AF93BF93EF93FF938091890090918A00D3
:10103000892B81F18091B5009091B600A091B70005
:10104000B091B8000196A11DB11D8093B500909399
:10105000B600A093B700B093B80040919D005091A6
:101060009E0060919F007091A00084179507A607CD
:10107000B70781F41092B5001092B6001092B70035
:101080001092B8008091A90082BFE0918900F09190
:101090008A000995FF91EF91BF91AF919F918F9138
:1010A0007F916F915F914F913F912F910F900FBE64
:1010B0000F901F9018951F920F920FB60F92112448
:1010C0002F933F934F935F936F937F938F939F9350
:1010D000AF93BF93EF93FF9380918B0090918C001F
:1010E000892BE9F18091B1009091B200A091B300F9
:1010F000B091B4000196A11DB11D8093B1009093F1
:10110000B200A093B300B093B40040919900509105
:101110009A0060919B0070919C0084179507A60728
:10112000B707E9F41092B1001092B2001092B30028
:101130001092B4008091A5009091A600A091A70004
:10114000B091A800892F9A2FAB2FBB278DBD80911E
:10115000A5008CBDE0918B00F0918C000995FF916A
:10116000EF91BF91AF919F918F917F916F915F911F
:101170004F913F912F910F900FBE0F901F90189598
:101180001F920F920FB60F9211242F933F934F93FC
:101190005F936F937F938F939F93AF93BF93EF93DF
:1011A000FF9380918D0090918E00892B81F1809129
:1011B000AD009091AE00A091AF00B091B00001964B
:1011C000A11DB11D8093AD009093AE00A093AF0020
:1011D000B093B000409195005091960060919700B7
:1011E0007091980084179507A607B70781F41092AD
:1011F000AD001092AE001092AF001092B00080913E
:10120000A10084BDE0918D00F0918E000995FF91C1
:10121000EF91BF91AF919F918F917F916F915F916E
:101220004F913F912F910F900FBE0F901F901895E7
:101230001F920F920FB60F9211242F933F934F934B
:101240005F936F937F938F939F93AF93BF93EF932E
:10125000FF93E0918900F0918A00309749F18091E5
:10126000B5009091B600A091B700B091B80001967A
:10127000A11DB11D8093B5009093B600A093B70057
:10128000B093B80040919D0050919E0060919F00E6
:101290007091A00084179507A607B70749F410922C
:1012A000B5001092B6001092B7001092B8000995E0
:1012B000FF91EF91BF91AF919F918F917F916F912E
:1012C0005F914F913F912F910F900FBE0F901F9004
:1012D00018951F920F920FB60F9211242F933F93E0
:1012E0004F935F936F937F938F939F93AF93BF932E
:1012F000EF93FF93E0918B00F0918C00309749F1D0
:101300008091B1009091B200A091B300B091B4006F
:101310000196A11DB11D8093B1009093B200A093DE
:10132000B300B093B4004091990050919A0060913D
:101330009B0070919C0084179507A607B70749F496
:101340001092B1001092B2001092B3001092B4004B
:101350000995FF91EF91BF91AF919F918F917F91EF
:101360006F915F914F913F912F910F900FBE0F9012
:101370001F9018951F920F920FB60F9211242F9362
:101380003F934F935F936F937F938F939F93AF930D
:10139000BF93EF93FF93E0918B00F0918C00309717
:1013A00049F18091B1009091B200A091B300B09149
:1013B000B4000196A11DB11D8093B1009093B200BD
:1013C000A093B300B093B4004091990050919A005B
:1013D00060919B0070919C0084179507A607B70742
:1013E00049F41092B1001092B2001092B300109222
:1013F000B4000995FF91EF91BF91AF919F918F91AB
:101400007F916F915F914F913F912F910F900FBE00
:101410000F901F9018951F920F920FB60F921124E4
:101420002F933F934F935F936F937F938F939F93EC
:10143000AF93BF93EF93FF93E0918D00F0918E00F7
:10144000309749F18091AD009091AE00A091AF002E
:10145000B091B0000196A11DB11D8093AD00909395
:10146000AE00A093AF00B093B000409195005091B2
:101470009600609197007091980084179507A607D1
:10148000B70749F41092AD001092AE001092AF0071
:101490001092B0000995FF91EF91BF91AF919F918C
:1014A0008F917F916F915F914F913F912F910F900D
:1014B0000FBE0F901F9018955058BB27AA270E9467
:1014C000740A0C94750B0E94670B38F00E946E0B27
:1014D00020F039F49F3F19F426F40C94640B0EF4B9
:1014E000E095E7FB0C945E0BE92F0E94860B58F306
:1014F000BA17620773078407950720F079F4A6F5F9
:101500000C94A80B0EF4E0950B2EBA2FA02D0B0116
:10151000B90190010C01CA01A0011124FF27591B38
:1015200099F0593F50F4503E68F11A16F040A22F3E
:10153000232F342F4427585FF3CF469537952795AF
:10154000A795F0405395C9F77EF41F16BA0B620BAE
:10155000730B840BBAF09150A1F0FF0FBB1F661FF5
:10156000771F881FC2F70EC0BA0F621F731F841F38
:1015700048F4879577956795B795F7959E3F08F05E
:10158000B0CF9395880F08F09927EE0F9795879520
:1015900008950E943A0B08F481E008950E948E0B92
:1015A00088F09F5798F0B92F9927B751B0F0E1F024
:1015B000660F771F881F991F1AF0BA95C9F714C0D4
:1015C000B13091F00E94A80BB1E008950C94A80BE3
:1015D000672F782F8827B85F39F0B93FCCF386950D
:1015E00077956795B395D9F73EF49095809570956A
:1015F00061957F4F8F4F9F4F0895E89409C097FBE7
:101600003EF490958095709561957F4F8F4F9F4FD9
:101610009923A9F0F92F96E9BB279395F69587951D
:1016200077956795B795F111F8CFFAF4BB0F11F4E0
:1016300060FF1BC06F5F7F4F8F4F9F4F16C0882387
:1016400011F096E911C0772321F09EE8872F762FBD
:1016500005C0662371F096E8862F70E060E02AF0FE
:101660009A95660F771F881FDAF7880F96958795EA
:1016700097F90895990F0008550FAA0BE0E8FEEFBF
:1016800016161706E807F907C0F012161306E40746
:10169000F50798F0621B730B840B950B39F40A263F
:1016A00061F0232B242B252B21F408950A2609F41D
:1016B000A140A6958FEF811D811D089597F99F6721
:1016C00080E870E060E008959FEF80EC08950024CA
:1016D0000A941616170618060906089500240A9497
:1016E00012161306140605060895092E0394000C1D
:1016F00011F4882352F0BB0F40F4BF2B11F460FFAC
:1017000004C06F5F7F4F8F4F9F4F089557FD9058D4
:10171000440F551F59F05F3F71F04795880F97FBB5
:10172000991F61F09F3F79F087950895121613066F
:101730001406551FF2CF4695F1DF08C0161617069E
:101740001806991FF1CF86957105610508940895D3
:10175000E894BB2766277727CB0197F908950E9465
:101760003A0B08F48FEF08950E94C70B0C94750B89
:101770000E94670B38F00E946E0B20F0952311F049
:101780000C945E0B0C94640B11240C94A90B0E9416
:10179000860B70F3959FC1F3950F50E0551F629F24
:1017A000F001729FBB27F00DB11D639FAA27F00DBA
:1017B000B11DAA1F649F6627B00DA11D661F829FE1
:1017C0002227B00DA11D621F739FB00DA11D621FC6
:1017D000839FA00D611D221F749F3327A00D611DE3
:1017E000231F849F600D211D822F762F6A2F1124C5
:1017F0009F5750409AF0F1F088234AF0EE0FFF1FF8
:10180000BB1F661F771F881F91505040A9F79E3F4E
:10181000510580F00C945E0B0C94A90B5F3FE4F330
:10182000983ED4F3869577956795B795F795E795A4
:101830009F5FC1F7FE2B880F911D9695879597F9AD
:101840000895AA1BBB1B51E107C0AA1FBB1FA61707
:10185000B70710F0A61BB70B881F991F5A95A9F759
:0E18600080959095BC01CD010895F894FFCFBE
:0E186E00020400010200010201010102020257
:00000001FF
