S02700004F6E2D64656D616E642D547261666669635F4C696768745F436F6E74726F6C2E7372656327
S11300000C942A000C946F040C9498040C94C1046E
S11300100C942F0A0C94E4080C94CB070C948D09CF
S11300200C94DE090C947F080C943C090C9427086A
S11300300C9447000C9447000C9447000C94470020
S11300400C9447000C9447000C9447000C94470010
S11300500C94470011241FBECFE5D8E0DEBFCDBF0E
S113006010E0A0E6B0E0E6EBF8E102C005900D92E6
S1130070AE36B107D9F720E0AEE6B0E001C01D927C
S1130080AE3BB207E1F70E9462020C94590C0C9447
S1130090000081E08093710008954CEB50E060E033
S11300A081E00E94FB034DEB50E062E081E00E949E
S11300B0FB038091BD00813091F480917000811127
S11300C00EC080916F0081110AC085E00E943A023F
S11300D083E00E94120281E0809370000895809171
S11300E0BC00813021F08091BB00813089F4809183
S11300F0700081110DC080916F00811109C081E0F1
S113010080936F008091BB00813011F480936E0066
S113011008951092710040E45BE46CE470E080E0C8
S11301200E946507809171008130E1F70895109273
S1130130710040E251EA67E070E080E00E946507E8
S1130140809171008130E1F70895CF93DF93D82F28
S113015081E08093BB00C1E023C081E00E941202D1
S1130160D53619F484E00E94120280916E0088232F
S113017019F010926E0016C00E94970081E00E9450
S11301803A02D53619F484E00E943A0280916E0056
S1130190882319F010926E0005C00E949700CF5F6B
S11301A0C630D8F21092BB00DF91CF9108958091B0
S11301B06F00882301F1813009F580E00E943A0242
S11301C085E60E94A50085E00E943A0283E00E9431
S11301D0120282E00E9412020E94890082E00E94C0
S11301E03A0285E60E94A50083E00E943A0285E077
S11301F00E941202089580E00E943A0208958091BC
S11302007000882389F08130B9F40E94890082E06B
S11302100E943A0285E60E94A50083E00E943A0209
S113022085E00E941202089582E00E943A0281E071
S11302300E94A5000E94D70008956DE470E080E05C
S11302400E94610469E470E080E00E94B1070E94AA
S113025067020E94EA040E9448040E9437070E9431
S1130260B4010E947D0180E00E941202109271008C
S113027040E45BE46CE470E080E00E9465078091F8
S11302807100813021F080916F008130C1F785E0E9
S11302900E943A020E94D70080916F00882319F0CF
S11302A010926F00E0CF81E00E94A5000E94D70069
S11302B080916F00882319F010926F00D4CF82E0F0
S11302C00E9412021092710040E45BE46CE470E05E
S11302D080E00E94650780917100813021F0809157
S11302E070008130C1F70E94FF0080917000882364
S11302F009F4B9CF10927000B6CFCF93C0E030C0EC
S11303008C2F90E0FC01EE58FF4F2081213021F02A
S1130310D8F0223069F023C0FC01E05AFF4FDC0121
S1130320AF59BF4F41E060818C910E94710217C0A8
S1130330FC01E05AFF4FDC01AF59BF4F40E0608140
S11303408C910E9471020BC0FC01E05AFF4FDC014A
S1130350AF59BF4F40E060818C910E947102CF5F22
S1130360CC2371F2CF9108951F93CF93DF9310E0C4
S113037052C0C12FD0E0DE01AE59BF4FFE01E85993
S1130380FF4F42E06C9180810E947102FE01E758A8
S1130390FF4F8081882319F08130F9F03BC0FE01C2
S11303A0ED58FF4F8081882369F0813099F5FE0173
S11303B0EE59FF4FC859DF4F41E0608188810E94A8
S11303C0680328C0FE01EE59FF4FC859DF4F40E0D3
S11303D0608188810E9468031DC0FE01ED58FF4FB3
S11303E08081882369F08130A9F4FE01EE59FF4F22
S11303F0C859DF4F40E0608188810E9468030AC0C9
S1130400FE01EE59FF4FC859DF4F41E060818881FA
S11304100E9468031F5F163008F4ABCFDF91CF91C1
S11304201F910895863010F590E0FC01E758FF4FC6
S11304302081222319F0213069F01AC0FC01EE5901
S1130440FF4F6081FC01E859FF4F41E080810E9429
S113045068030895FC01EE59FF4F6081FC01E859DF
S1130460FF4F40E080810E946803089581E0089571
S113047080E00895863010F590E0FC01E758FF4FC6
S11304802081222319F0213069F01AC0FC01EE59B1
S1130490FF4F6081FC01E859FF4F40E080810E94DA
S11304A068030895FC01EE59FF4F6081FC01E8598F
S11304B0FF4F41E080810E946803089581E0089520
S11304C080E008950E941D0180E090E008958FEF80
S11304D08ABB87BB14BA11BA1BBA18BA15BA12BAB6
S11304E00895853008F0E6C0683008F0E5C0433070
S11304F008F0E4C041114FC08230D1F018F48130CB
S113050031F0DEC0833029F18430A1F1D9C02AB39F
S113051081E090E002C0880F991F6A95E2F7809508
S1130520922F98239ABB9BB389238BBB80E00895B9
S113053027B381E090E002C0880F991F6A95E2F723
S11305408095922F982397BB98B3892388BB80E02A
S1130550089524B381E090E002C0880F991F6A9542
S1130560E2F78095922F982394BB95B3892385BB9A
S113057080E0089521B381E090E002C0880F991FC4
S11305806A95E2F78095922F982391BB92B38923C1
S113059082BB80E00895413009F04EC090B79B7F44
S11305A090BF8230C9F018F4813031F08BC08330B1
S11305B019F1843089F186C02AB381E090E002C049
S11305C0880F991F6A95E2F7922F982B9ABB9BB3D9
S11305D0892B8BBB80E0089527B381E090E002C0B3
S11305E0880F991F6A95E2F7922F982B97BB98B3BF
S11305F0892B88BB80E0089524B381E090E002C099
S1130600880F991F6A95E2F7922F982B94BB95B3A4
S1130610892B85BB80E0089521B381E090E002C07E
S1130620880F991F6A95E2F7922F982B91BB92B38A
S1130630892B82BB80E00895423009F045C08230A6
S1130640A9F018F4813031F041C08330D9F08430FE
S113065029F13CC02AB381E090E002C0880F991FC1
S11306606A95E2F7822B8ABB80E0089527B381E084
S113067090E002C0880F991F6A95E2F7822B87BB2E
S113068080E0089524B381E090E002C0880F991FB0
S11306906A95E2F7822B84BB80E0089521B381E060
S11306A090E002C0880F991F6A95E2F7822B81BB04
S11306B080E0089581E0089581E0089581E008953F
S11306C080E0089580E0089580E0089580E0089532
S11306D0853008F084C0683008F083C0423008F0E8
S11306E082C04130D9F58230A9F018F4813031F05C
S11306F07CC08330D9F0843029F177C02BB381E0FA
S113070090E002C0880F991F6A95E2F7822B8BBB99
S113071080E0089528B381E090E002C0880F991F1B
S11307206A95E2F7822B88BB80E0089525B381E0C7
S113073090E002C0880F991F6A95E2F7822B85BB6F
S113074080E0089522B381E090E002C0880F991FF1
S11307506A95E2F7822B82BB80E00895411147C07D
S11307608230B1F018F4813031F043C08330E9F0C5
S1130770843041F13EC02BB381E090E002C0880F89
S1130780991F6A95E2F7809582238BBB80E00895D8
S113079028B381E090E002C0880F991F6A95E2F7C0
S11307A08095822388BB80E0089525B381E090E0A2
S11307B002C0880F991F6A95E2F78095822385BB52
S11307C080E0089522B381E090E002C0880F991F71
S11307D06A95E2F78095822382BB80E0089581E0E8
S11307E0089581E0089581E0089580E0089580E00F
S11307F0089580E00895853008F042C0683008F01C
S113080041C04115510509F43FC08230A9F018F4E4
S1130810813031F03BC08330D9F0843029F136C0C7
S113082089B390E002C0959587956A95E2F7817047
S1130830FA01808380E0089586B390E002C0959524
S113084087956A95E2F78170FA01808380E00895C4
S113085083B390E002C0959587956A95E2F781701D
S1130860FA01808380E0089580B390E002C09595FA
S113087087956A95E2F78170FA01808380E0089594
S113088081E0089581E0089581E0089580E008956D
S11308908BB780648BBF8BB78F778BBF8BB78F7D04
S11308A08BBF85B7826085BF85B7816085BF85B7FB
S11308B0877F85BF85B78B7F85BF84B78F7B84BFD8
S11308C00895833050F4E82FF0E0EE0FFF1FE15855
S11308D0FF4F7183608380E0089581E008951F9243
S11308E00F920FB60F9211242F933F934F935F9360
S11308F06F937F938F939F93AF93BF93EF93FF93E4
S1130900E0917F00F0918000309709F00995FF9104
S1130910EF91BF91AF919F918F917F916F915F9173
S11309204F913F912F910F900FBE0F901F901895EC
S11309301F920F920FB60F9211242F933F934F9350
S11309405F936F937F938F939F93AF93BF93EF9333
S1130950FF93E0918100F0918200309709F00995AE
S1130960FF91EF91BF91AF919F918F917F916F9183
S11309705F914F913F912F910F900FBE0F901F9059
S113098018951F920F920FB60F9211242F933F9335
S11309904F935F936F937F938F939F93AF93BF9383
S11309A0EF93FF93E0918300F0918400309709F076
S11309B00995FF91EF91BF91AF919F918F917F9195
S11309C06F915F914F913F912F910F900FBE0F90B8
S11309D01F9018958FB780688FBF08958F929F924C
S11309E0AF92BF92CF92DF92EF92FF926B017C01A4
S11309F020E030E040E85FE30E94ED0A811116C078
S1130A0081E090E0A0E0B0E080939E0090939F008E
S1130A10A093A000B093A1001092AA001092AB0082
S1130A201092AC001092AD0012BE8EC020E030E0F7
S1130A3040E85FE3C701B6010E94D30B18160CF01F
S1130A4052C0C701B6010E94F20A4B015C010E9428
S1130A50210B9B01AC01C701B6010E94800A6B0106
S1130A607C0120E030E0A9010E94ED0A811112C04E
S1130A7080929E0090929F00A092A000B092A1004C
S1130A801092AA001092AB001092AC001092AD002C
S1130A9012BE5AC020E030E040E853E4C701B6017A
S1130AA00E94D80B9B01AC0160E070E080E893E405
S1130AB00E94800A0E94F20A2FEF821A920AA20A66
S1130AC0B20A80929E0090929F00A092A000B092E1
S1130AD0A1006093AA007093AB008093AC00909344
S1130AE0AD0062BF31C020E030E040E85FE3C70101
S1130AF0B6010E94ED0A88233CF520E030E040E88E
S1130B0053E4C701B6010E94D80B9B01AC0160E01D
S1130B1070E080E893E40E94800A0E94F20AC12CEB
S1130B20D12C7601C394C0929E00D0929F00E09293
S1130B30A000F092A1006093AA007093AB00809390
S1130B40AC009093AD0062BFFF90EF90DF90CF9028
S1130B50BF90AF909F908F9008958F929F92AF9285
S1130B60BF92CF92DF92EF92FF926B017C0120E063
S1130B7030E040E85FE30E94ED0A811117C081E094
S1130B8090E0A0E0B0E080939A0090939B00A09343
S1130B909C00B0939D001092A6001092A7001092A2
S1130BA0A8001092A9001DBC1CBC99C020E030E034
S1130BB040E85FE3C701B6010E94D30B18160CF09E
S1130BC058C0C701B6010E94F20A4B015C010E94A1
S1130BD0210B9B01AC01C701B6010E94800A6B0185
S1130BE07C0120E030E0A9010E94ED0A811113C0CC
S1130BF080929A0090929B00A0929C00B0929D00DB
S1130C001092A6001092A7001092A8001092A900BA
S1130C101DBC1CBC64C020E030E040E857E4C701C0
S1130C20B6010E94D80B9B01AC0160E070E080E843
S1130C3097E40E94800A0E94F20A2FEF821A920A15
S1130C40A20AB20A80929A0090929B00A0929C0001
S1130C50B0929D006093A6007093A7008093A800B3
S1130C609093A900C72ED82EE92EFF24CDBC6CBDCD
S1130C7036C020E030E040E85FE3C701B6010E94DF
S1130C80ED0A882364F520E030E040E857E4C7012A
S1130C90B6010E94D80B9B01AC0160E070E080E8D3
S1130CA097E40E94800A0E94F20AC12CD12C76019A
S1130CB0C394C0929A00D0929B00E0929C00F09260
S1130CC09D006093A6007093A7008093A800909362
S1130CD0A900C72ED82EE92EFF24CDBC6CBDFF90F1
S1130CE0EF90DF90CF90BF90AF909F908F9008953A
S1130CF08F929F92AF92BF92CF92DF92EF92FF9228
S1130D006B017C0120E030E040E85FE30E94ED0AE3
S1130D10811116C081E090E0A0E0B0E080939600DD
S1130D2090939700A0939800B09399001092A2001A
S1130D301092A3001092A4001092A50014BC8EC0BF
S1130D4020E030E040E85FE3C701B6010E94D30B26
S1130D5018160CF052C0C701B6010E94F20A4B01EA
S1130D605C010E94210B9B01AC01C701B6010E94EA
S1130D70800A6B017C0120E030E0A9010E94ED0AA9
S1130D80811112C08092960090929700A0929800D0
S1130D90B09299001092A2001092A3001092A400A5
S1130DA01092A50014BC5AC020E030E040E853E49F
S1130DB0C701B6010E94D80B9B01AC0160E070E052
S1130DC080E893E40E94800A0E94F20A2FEF821ABC
S1130DD0920AA20AB20A8092960090929700A09278
S1130DE09800B09299006093A2007093A30080933E
S1130DF0A4009093A50064BD31C020E030E040E839
S1130E005FE3C701B6010E94ED0A88233CF520E0A8
S1130E1030E040E853E4C701B6010E94D80B9B01BF
S1130E20AC0160E070E080E893E40E94800A0E94D4
S1130E30F20AC12CD12C7601C394C0929600D092B0
S1130E409700E0929800F09299006093A20070934A
S1130E50A3008093A4009093A50064BDFF90EF903D
S1130E60DF90CF90BF90AF909F908F90089583B7FD
S1130E708F7B83BF83B7877F83BF89B7816089BF37
S1130E8083B78F7E83BF83B78F7D83BF83B78E7F06
S1130E9083BF83B78D7F83BF83B7846083BF83B7EA
S1130EA08093BA008EB58E7F8EBD8EB58D7F8EBD3C
S1130EB08EB58B7F8EBD85B58E7F85BD85B58D7FC7
S1130EC085BD85B58B7F85BD0895282F833008F0B7
S1130ED044C0CB01BA012130C1F018F0223049F1ED
S1130EE03EC01092B6001092B7001092B800109253
S1130EF0B9000E94210B20E030E040E059E30E9459
S1130F00D80B0E94EE0480E008951092B200109273
S1130F10B3001092B4001092B5000E94210B20E09F
S1130F2030E040E054E30E94D80B0E94AD0580E01D
S1130F3008951092AE001092AF001092B00010927B
S1130F40B1000E94210B20E030E040E85BE30E9406
S1130F50D80B0E94780680E0089581E0089580E02F
S1130F6008958330B0F49091AA0092BF2091A60016
S1130F703091A7003DBD2CBD9091A20094BDE82FF7
S1130F80F0E0EE0FFF1FE657FF4F7183608380E0B0
S1130F90089581E008951F920F920FB60F921124C5
S1130FA02F933F934F935F936F937F938F939F936D
S1130FB0AF93BF938091890081112FC081E080930A
S1130FC0890066B577B58091870090918800681B89
S1130FD0790B709393006093920020918500309177
S1130FE08600281B390B309395002093940086B516
S1130FF097B5909388008093870044E6429FC00190
S1131000439F900D11240E94450C709391006093AE
S113101090008EB58F7B8EBD0BC01092890086B573
S113102097B590938600809385008EB580648EBDBD
S1131030BF91AF919F918F917F916F915F914F91EC
S11310403F912F910F900FBE0F901F9018951F92F4
S11310500F920FB60F9211242F933F934F935F93E8
S11310606F937F938F939F93AF93BF93EF93FF936C
S113107080918A0090918B00892B81F18091B60038
S11310809091B700A091B800B091B9000196A11D4C
S1131090B11D8093B6009093B700A093B800B093AD
S11310A0B90040919E0050919F006091A000709102
S11310B0A10084179507A607B70781F41092B6001C
S11310C01092B7001092B8001092B9008091AA0053
S11310D082BFE0918A00F0918B000995FF91EF9116
S11310E0BF91AF919F918F917F916F915F914F913C
S11310F03F912F910F900FBE0F901F9018951F9244
S11311000F920FB60F9211242F933F934F935F9337
S11311106F937F938F939F93AF93BF93EF93FF93BB
S113112080918C0090918D00892BE9F18091B2001F
S11311309091B300A091B400B091B5000196A11DA7
S1131140B11D8093B2009093B300A093B400B09308
S1131150B50040919A0050919B0060919C00709161
S11311609D0084179507A607B707E9F41092B2000B
S11311701092B3001092B4001092B5008091A600B2
S11311809091A700A091A800B091A900892F9A2F4F
S1131190AB2FBB278DBD8091A6008CBDE0918C0048
S11311A0F0918D000995FF91EF91BF91AF919F91BF
S11311B08F917F916F915F914F913F912F910F90FC
S11311C00FBE0F901F9018951F920F920FB60F929B
S11311D011242F933F934F935F936F937F938F9338
S11311E09F93AF93BF93EF93FF9380918E00909161
S11311F08F00892B81F18091AE009091AF00A09176
S1131200B000B091B1000196A11DB11D8093AE0054
S11312109093AF00A093B000B093B10040919600BA
S113122050919700609198007091990084179507E8
S1131230A607B70781F41092AE001092AF00109287
S1131240B0001092B1008091A20084BDE0918E00A4
S1131250F0918F000995FF91EF91BF91AF919F910C
S11312608F917F916F915F914F913F912F910F904B
S11312700FBE0F901F9018951F920F920FB60F92EA
S113128011242F933F934F935F936F937F938F9387
S11312909F93AF93BF93EF93FF93E0918A00F091F4
S11312A08B00309749F18091B6009091B700A091DE
S11312B0B800B091B9000196A11DB11D8093B6008C
S11312C09093B700A093B800B093B90040919E00EA
S11312D050919F006091A0007091A1008417950720
S11312E0A607B70749F41092B6001092B7001092FF
S11312F0B8001092B9000995FF91EF91BF91AF9199
S11313009F918F917F916F915F914F913F912F9119
S11313100F900FBE0F901F9018951F920F920FB64B
S11313200F9211242F933F934F935F936F937F9367
S11313308F939F93AF93BF93EF93FF93E0918C00B0
S1131340F0918D00309749F18091B2009091B300F3
S1131350A091B400B091B5000196A11DB11D809378
S1131360B2009093B300A093B400B093B500409141
S11313709A0050919B0060919C0070919D0084178D
S11313809507A607B70749F41092B2001092B3006C
S11313901092B4001092B5000995FF91EF91BF919E
S11313A0AF919F918F917F916F915F914F913F91F9
S11313B02F910F900FBE0F901F9018951F920F92B0
S11313C00FB60F9211242F933F934F935F936F9314
S11313D07F938F939F93AF93BF93EF93FF93E0918A
S11313E08C00F0918D00309749F18091B20090917A
S11313F0B300A091B400B091B5000196A11DB11D38
S11314008093B2009093B300A093B400B093B5005E
S113141040919A0050919B0060919C0070919D00B6
S113142084179507A607B70749F41092B2001092E3
S1131430B3001092B4001092B5000995FF91EF919A
S1131440BF91AF919F918F917F916F915F914F91D8
S11314503F912F910F900FBE0F901F9018951F92E0
S11314600F920FB60F9211242F933F934F935F93D4
S11314706F937F938F939F93AF93BF93EF93FF9358
S1131480E0918E00F0918F00309749F18091AE0089
S11314909091AF00A091B000B091B1000196A11D50
S11314A0B11D8093AE009093AF00A093B000B093B1
S11314B0B10040919600509197006091980070910E
S11314C0990084179507A607B70749F41092AE0050
S11314D01092AF001092B0001092B1000995FF91E4
S11314E0EF91BF91AF919F918F917F916F915F9198
S11314F04F913F912F910F900FBE0F901F90189511
S11315005058BB27AA270E94980A0C94990B0E9452
S11315108B0B38F00E94920B20F039F49F3F19F4A2
S113152026F40C94880B0EF4E095E7FB0C94820BE4
S1131530E92F0E94AA0B58F3BA17620773078407AE
S1131540950720F079F4A6F50C94CC0B0EF4E095F5
S11315500B2EBA2FA02D0B01B90190010C01CA0169
S1131560A0011124FF27591B99F0593F50F4503E14
S113157068F11A16F040A22F232F342F4427585F06
S1131580F3CF469537952795A795F0405395C9F71E
S11315907EF41F16BA0B620B730B840BBAF09150D6
S11315A0A1F0FF0FBB1F661F771F881FC2F70EC075
S11315B0BA0F621F731F841F48F487957795679548
S11315C0B795F7959E3F08F0B0CF9395880F08F034
S11315D09927EE0F9795879508950E945E0B08F45E
S11315E081E008950E94B20B88F09F5798F0B92FBC
S11315F09927B751B0F0E1F0660F771F881F991F44
S11316001AF0BA95C9F714C0B13091F00E94CC0B0E
S1131610B1E008950C94CC0B672F782F8827B85F1E
S113162039F0B93FCCF3869577956795B395D9F79B
S11316303EF490958095709561957F4F8F4F9F4FA5
S11316400895E89409C097FB3EF4909580957095B1
S113165061957F4F8F4F9F4F9923A9F0F92F96E9FA
S1131660BB279395F695879577956795B795F1116F
S1131670F8CFFAF4BB0F11F460FF1BC06F5F7F4F0C
S11316808F4F9F4F16C0882311F096E911C077231E
S113169021F09EE8872F762F05C0662371F096E827
S11316A0862F70E060E02AF09A95660F771F881FF6
S11316B0DAF7880F9695879597F90895990F00089A
S11316C0550FAA0BE0E8FEEF16161706E807F90710
S11316D0C0F012161306E407F50798F0621B730BAB
S11316E0840B950B39F40A2661F0232B242B252B2C
S11316F021F408950A2609F4A140A6958FEF811DCF
S1131700811D089597F99F6780E870E060E008956F
S11317109FEF80EC089500240A9416161706180605
S11317200906089500240A941216130614060506E1
S11317300895092E0394000C11F4882352F0BB0F72
S113174040F4BF2B11F460FF04C06F5F7F4F8F4FD5
S11317509F4F089557FD9058440F551F59F05F3F10
S113176071F04795880F97FB991F61F09F3F79F0BF
S113177087950895121613061406551FF2CF469541
S1131780F1DF08C0161617061806991FF1CF8695C3
S11317907105610508940895E894BB2766277727A7
S11317A0CB0197F908950E945E0B08F48FEF08951A
S11317B00E94EB0B0C94990B0E948B0B38F00E9447
S11317C0920B20F0952311F00C94820B0C94880B4F
S11317D011240C94CD0B0E94AA0B70F3959FC1F3B6
S11317E0950F50E0551F629FF001729FBB27F00DCB
S11317F0B11D639FAA27F00DB11DAA1F649F662720
S1131800B00DA11D661F829F2227B00DA11D621F6E
S1131810739FB00DA11D621F839FA00D611D221F28
S1131820749F3327A00D611D231F849F600D211D0C
S1131830822F762F6A2F11249F5750409AF0F1F08F
S113184088234AF0EE0FFF1FBB1F661F771F881FF8
S113185091505040A9F79E3F510580F00C94820BA3
S11318600C94CD0B5F3FE4F3983ED4F386957795C3
S11318706795B795F795E7959F5FC1F7FE2B880F9E
S1131880911D9695879597F90895AA1BBB1B51E165
S113189007C0AA1FBB1FA617B70710F0A61BB70BDC
S11318A0881F991F5A95A9F780959095BC01CD0181
S10918B00895F894FFCF37
S11118B602040001020001020101010202020B
S9030000FC
